{
  "_format": "hh-sol-artifact-1",
  "contractName": "Lottery",
  "sourceName": "contracts/Lottery.sol",
  "abi": [
    {
      "inputs": [],
      "stateMutability": "nonpayable",
      "type": "constructor"
    },
    {
      "anonymous": false,
      "inputs": [
        {
          "indexed": true,
          "internalType": "address",
          "name": "winner",
          "type": "address"
        }
      ],
      "name": "WinnerPicked",
      "type": "event"
    },
    {
      "inputs": [
        {
          "internalType": "uint256",
          "name": "",
          "type": "uint256"
        }
      ],
      "name": "allPlayers",
      "outputs": [
        {
          "internalType": "address",
          "name": "",
          "type": "address"
        }
      ],
      "stateMutability": "view",
      "type": "function"
    },
    {
      "inputs": [],
      "name": "claimPrize",
      "outputs": [],
      "stateMutability": "nonpayable",
      "type": "function"
    },
    {
      "inputs": [
        {
          "internalType": "uint256",
          "name": "",
          "type": "uint256"
        }
      ],
      "name": "currentPlayers",
      "outputs": [
        {
          "internalType": "address payable",
          "name": "",
          "type": "address"
        }
      ],
      "stateMutability": "view",
      "type": "function"
    },
    {
      "inputs": [],
      "name": "enter",
      "outputs": [],
      "stateMutability": "payable",
      "type": "function"
    },
    {
      "inputs": [],
      "name": "getAllPlayers",
      "outputs": [
        {
          "internalType": "address[]",
          "name": "",
          "type": "address[]"
        }
      ],
      "stateMutability": "view",
      "type": "function"
    },
    {
      "inputs": [],
      "name": "getCurrentPlayers",
      "outputs": [
        {
          "internalType": "address payable[]",
          "name": "",
          "type": "address[]"
        }
      ],
      "stateMutability": "view",
      "type": "function"
    },
    {
      "inputs": [],
      "name": "isComplete",
      "outputs": [
        {
          "internalType": "bool",
          "name": "",
          "type": "bool"
        }
      ],
      "stateMutability": "view",
      "type": "function"
    },
    {
      "inputs": [],
      "name": "manager",
      "outputs": [
        {
          "internalType": "address",
          "name": "",
          "type": "address"
        }
      ],
      "stateMutability": "view",
      "type": "function"
    },
    {
      "inputs": [],
      "name": "pickWinner",
      "outputs": [],
      "stateMutability": "nonpayable",
      "type": "function"
    },
    {
      "inputs": [],
      "name": "winner",
      "outputs": [
        {
          "internalType": "address payable",
          "name": "",
          "type": "address"
        }
      ],
      "stateMutability": "view",
      "type": "function"
    }
  ],
  "bytecode": "0x6080604052348015600f57600080fd5b50336000806101000a81548173ffffffffffffffffffffffffffffffffffffffff021916908373ffffffffffffffffffffffffffffffffffffffff1602179055506000600360146101000a81548160ff02191690831515021790555061107f8061007a6000396000f3fe6080604052600436106100915760003560e01c806370740ac91161005957806370740ac91461017d578063b2fa1c9e14610194578063dfbf53ae146101bf578063e97dcb62146101ea578063efa1c482146101f457610091565b806302cac05c146100965780630544ce5e146100c1578063481c6a75146100fe5780635d495aea14610129578063703afc8714610140575b600080fd5b3480156100a257600080fd5b506100ab61021f565b6040516100b89190610a97565b60405180910390f35b3480156100cd57600080fd5b506100e860048036038101906100e39190610af4565b6102ad565b6040516100f59190610b42565b60405180910390f35b34801561010a57600080fd5b506101136102ec565b6040516101209190610b42565b60405180910390f35b34801561013557600080fd5b5061013e610310565b005b34801561014c57600080fd5b5061016760048036038101906101629190610af4565b610562565b6040516101749190610b6c565b60405180910390f35b34801561018957600080fd5b506101926105a1565b005b3480156101a057600080fd5b506101a9610706565b6040516101b69190610ba2565b60405180910390f35b3480156101cb57600080fd5b506101d4610719565b6040516101e19190610b6c565b60405180910390f35b6101f261073f565b005b34801561020057600080fd5b506102096108a1565b6040516102169190610c7b565b60405180910390f35b606060018054806020026020016040519081016040528092919081815260200182805480156102a357602002820191906000526020600020905b8160009054906101000a900473ffffffffffffffffffffffffffffffffffffffff1673ffffffffffffffffffffffffffffffffffffffff1681526020019060010190808311610259575b5050505050905090565b600281815481106102bd57600080fd5b906000526020600020016000915054906101000a900473ffffffffffffffffffffffffffffffffffffffff1681565b60008054906101000a900473ffffffffffffffffffffffffffffffffffffffff1681565b60008054906101000a900473ffffffffffffffffffffffffffffffffffffffff1673ffffffffffffffffffffffffffffffffffffffff163373ffffffffffffffffffffffffffffffffffffffff161461039e576040517f08c379a000000000000000000000000000000000000000000000000000000000815260040161039590610d20565b60405180910390fd5b6000600180549050116103e6576040517f08c379a00000000000000000000000000000000000000000000000000000000081526004016103dd90610d8c565b60405180910390fd5b600360149054906101000a900460ff1615610436576040517f08c379a000000000000000000000000000000000000000000000000000000000815260040161042d90610df8565b60405180910390fd5b600060018054905061044661092f565b6104509190610e47565b90506001818154811061046657610465610e78565b5b9060005260206000200160009054906101000a900473ffffffffffffffffffffffffffffffffffffffff16600360006101000a81548173ffffffffffffffffffffffffffffffffffffffff021916908373ffffffffffffffffffffffffffffffffffffffff1602179055506001600360146101000a81548160ff021916908315150217905550600360009054906101000a900473ffffffffffffffffffffffffffffffffffffffff1673ffffffffffffffffffffffffffffffffffffffff167f5b690ec4a06fe979403046eaeea5b3ce38524683c3001f662c8b5a829632f7df60405160405180910390a26001600061055f9190610969565b50565b6001818154811061057257600080fd5b906000526020600020016000915054906101000a900473ffffffffffffffffffffffffffffffffffffffff1681565b600360009054906101000a900473ffffffffffffffffffffffffffffffffffffffff1673ffffffffffffffffffffffffffffffffffffffff163373ffffffffffffffffffffffffffffffffffffffff1614610631576040517f08c379a000000000000000000000000000000000000000000000000000000000815260040161062890610ef3565b60405180910390fd5b600360149054906101000a900460ff16610680576040517f08c379a000000000000000000000000000000000000000000000000000000000815260040161067790610f5f565b60405180910390fd5b600360009054906101000a900473ffffffffffffffffffffffffffffffffffffffff1673ffffffffffffffffffffffffffffffffffffffff166108fc479081150290604051600060405180830381858888f193505050501580156106e8573d6000803e3d6000fd5b506000600360146101000a81548160ff021916908315150217905550565b600360149054906101000a900460ff1681565b600360009054906101000a900473ffffffffffffffffffffffffffffffffffffffff1681565b66038d7ea4c68000341015610789576040517f08c379a000000000000000000000000000000000000000000000000000000000815260040161078090610fcb565b60405180910390fd5b600360149054906101000a900460ff16156107d9576040517f08c379a00000000000000000000000000000000000000000000000000000000081526004016107d090610df8565b60405180910390fd5b6001339080600181540180825580915050600190039060005260206000200160009091909190916101000a81548173ffffffffffffffffffffffffffffffffffffffff021916908373ffffffffffffffffffffffffffffffffffffffff1602179055506002339080600181540180825580915050600190039060005260206000200160009091909190916101000a81548173ffffffffffffffffffffffffffffffffffffffff021916908373ffffffffffffffffffffffffffffffffffffffff160217905550565b6060600280548060200260200160405190810160405280929190818152602001828054801561092557602002820191906000526020600020905b8160009054906101000a900473ffffffffffffffffffffffffffffffffffffffff1673ffffffffffffffffffffffffffffffffffffffff16815260200190600101908083116108db575b5050505050905090565b6000444260018054905060405160200161094b9392919061100c565b6040516020818303038152906040528051906020012060001c905090565b5080546000825590600052602060002090810190610987919061098a565b50565b5b808211156109a357600081600090555060010161098b565b5090565b600081519050919050565b600082825260208201905092915050565b6000819050602082019050919050565b600073ffffffffffffffffffffffffffffffffffffffff82169050919050565b60006109fe826109d3565b9050919050565b610a0e816109f3565b82525050565b6000610a208383610a05565b60208301905092915050565b6000602082019050919050565b6000610a44826109a7565b610a4e81856109b2565b9350610a59836109c3565b8060005b83811015610a8a578151610a718882610a14565b9750610a7c83610a2c565b925050600181019050610a5d565b5085935050505092915050565b60006020820190508181036000830152610ab18184610a39565b905092915050565b600080fd5b6000819050919050565b610ad181610abe565b8114610adc57600080fd5b50565b600081359050610aee81610ac8565b92915050565b600060208284031215610b0a57610b09610ab9565b5b6000610b1884828501610adf565b91505092915050565b6000610b2c826109d3565b9050919050565b610b3c81610b21565b82525050565b6000602082019050610b576000830184610b33565b92915050565b610b66816109f3565b82525050565b6000602082019050610b816000830184610b5d565b92915050565b60008115159050919050565b610b9c81610b87565b82525050565b6000602082019050610bb76000830184610b93565b92915050565b600081519050919050565b600082825260208201905092915050565b6000819050602082019050919050565b610bf281610b21565b82525050565b6000610c048383610be9565b60208301905092915050565b6000602082019050919050565b6000610c2882610bbd565b610c328185610bc8565b9350610c3d83610bd9565b8060005b83811015610c6e578151610c558882610bf8565b9750610c6083610c10565b925050600181019050610c41565b5085935050505092915050565b60006020820190508181036000830152610c958184610c1d565b905092915050565b600082825260208201905092915050565b7f4f6e6c7920746865206d616e616765722063616e2063616c6c2074686973206660008201527f756e6374696f6e00000000000000000000000000000000000000000000000000602082015250565b6000610d0a602783610c9d565b9150610d1582610cae565b604082019050919050565b60006020820190508181036000830152610d3981610cfd565b9050919050565b7f4e6f20706c617965727320696e20746865206c6f747465727900000000000000600082015250565b6000610d76601983610c9d565b9150610d8182610d40565b602082019050919050565b60006020820190508181036000830152610da581610d69565b9050919050565b7f4c6f747465727920697320636f6d706c65746500000000000000000000000000600082015250565b6000610de2601383610c9d565b9150610ded82610dac565b602082019050919050565b60006020820190508181036000830152610e1181610dd5565b9050919050565b7f4e487b7100000000000000000000000000000000000000000000000000000000600052601260045260246000fd5b6000610e5282610abe565b9150610e5d83610abe565b925082610e6d57610e6c610e18565b5b828206905092915050565b7f4e487b7100000000000000000000000000000000000000000000000000000000600052603260045260246000fd5b7f596f7520617265206e6f74207468652077696e6e657200000000000000000000600082015250565b6000610edd601683610c9d565b9150610ee882610ea7565b602082019050919050565b60006020820190508181036000830152610f0c81610ed0565b9050919050565b7f4c6f7474657279206973206e6f7420636f6d706c657465000000000000000000600082015250565b6000610f49601783610c9d565b9150610f5482610f13565b602082019050919050565b60006020820190508181036000830152610f7881610f3c565b9050919050565b7f4d696e696d756d20656e7472792066656520697320302e303031206574686572600082015250565b6000610fb5602083610c9d565b9150610fc082610f7f565b602082019050919050565b60006020820190508181036000830152610fe481610fa8565b9050919050565b6000819050919050565b61100661100182610abe565b610feb565b82525050565b60006110188286610ff5565b6020820191506110288285610ff5565b6020820191506110388284610ff5565b60208201915081905094935050505056fea264697066735822122097a17527c75ab0f32c1ebf23fe658527eac324731d6397ecfd6f935a30ec9fc764736f6c634300081c0033",
  "linkReferences": {},
  "deployedLinkReferences": {}
}